{
  "contractName": "Auction",
  "abi": [
    {
      "inputs": [
        {
          "internalType": "address",
          "name": "creator",
          "type": "address"
        }
      ],
      "stateMutability": "nonpayable",
      "type": "constructor"
    },
    {
      "inputs": [],
      "name": "auctionState",
      "outputs": [
        {
          "internalType": "enum Auction.State",
          "name": "",
          "type": "uint8"
        }
      ],
      "stateMutability": "view",
      "type": "function"
    },
    {
      "inputs": [
        {
          "internalType": "address",
          "name": "",
          "type": "address"
        }
      ],
      "name": "bids",
      "outputs": [
        {
          "internalType": "uint256",
          "name": "",
          "type": "uint256"
        }
      ],
      "stateMutability": "view",
      "type": "function"
    },
    {
      "inputs": [],
      "name": "endBlock",
      "outputs": [
        {
          "internalType": "uint256",
          "name": "",
          "type": "uint256"
        }
      ],
      "stateMutability": "view",
      "type": "function"
    },
    {
      "inputs": [],
      "name": "highestBidder",
      "outputs": [
        {
          "internalType": "address payable",
          "name": "",
          "type": "address"
        }
      ],
      "stateMutability": "view",
      "type": "function"
    },
    {
      "inputs": [],
      "name": "highestBindingBid",
      "outputs": [
        {
          "internalType": "uint256",
          "name": "",
          "type": "uint256"
        }
      ],
      "stateMutability": "view",
      "type": "function"
    },
    {
      "inputs": [],
      "name": "ipfsHash",
      "outputs": [
        {
          "internalType": "string",
          "name": "",
          "type": "string"
        }
      ],
      "stateMutability": "view",
      "type": "function"
    },
    {
      "inputs": [],
      "name": "owner",
      "outputs": [
        {
          "internalType": "address payable",
          "name": "",
          "type": "address"
        }
      ],
      "stateMutability": "view",
      "type": "function"
    },
    {
      "inputs": [],
      "name": "ownerGotFunds",
      "outputs": [
        {
          "internalType": "bool",
          "name": "",
          "type": "bool"
        }
      ],
      "stateMutability": "view",
      "type": "function"
    },
    {
      "inputs": [],
      "name": "startBlock",
      "outputs": [
        {
          "internalType": "uint256",
          "name": "",
          "type": "uint256"
        }
      ],
      "stateMutability": "view",
      "type": "function"
    },
    {
      "inputs": [],
      "name": "placeBid",
      "outputs": [],
      "stateMutability": "payable",
      "type": "function"
    },
    {
      "inputs": [],
      "name": "cancelAuction",
      "outputs": [],
      "stateMutability": "nonpayable",
      "type": "function"
    },
    {
      "inputs": [],
      "name": "finalizeAuction",
      "outputs": [],
      "stateMutability": "nonpayable",
      "type": "function"
    }
  ],
  "bytecode": "0x60806040526000600960006101000a81548160ff0219169083151502179055503480156200002c57600080fd5b506040516200129738038062001297833981810160405281019062000052919062000230565b806000806101000a81548173ffffffffffffffffffffffffffffffffffffffff021916908373ffffffffffffffffffffffffffffffffffffffff1602179055506001600460006101000a81548160ff02191690836003811115620000bb57620000ba62000262565b5b021790555043600181905550619d80600154620000d99190620002ca565b60028190555060405180602001604052806000815250600390805190602001906200010692919062000116565b506064600881905550506200038c565b828054620001249062000356565b90600052602060002090601f01602090048101928262000148576000855562000194565b82601f106200016357805160ff191683800117855562000194565b8280016001018555821562000194579182015b828111156200019357825182559160200191906001019062000176565b5b509050620001a39190620001a7565b5090565b5b80821115620001c2576000816000905550600101620001a8565b5090565b600080fd5b600073ffffffffffffffffffffffffffffffffffffffff82169050919050565b6000620001f882620001cb565b9050919050565b6200020a81620001eb565b81146200021657600080fd5b50565b6000815190506200022a81620001ff565b92915050565b600060208284031215620002495762000248620001c6565b5b6000620002598482850162000219565b91505092915050565b7f4e487b7100000000000000000000000000000000000000000000000000000000600052602160045260246000fd5b6000819050919050565b7f4e487b7100000000000000000000000000000000000000000000000000000000600052601160045260246000fd5b6000620002d78262000291565b9150620002e48362000291565b9250827fffffffffffffffffffffffffffffffffffffffffffffffffffffffffffffffff038211156200031c576200031b6200029b565b5b828201905092915050565b7f4e487b7100000000000000000000000000000000000000000000000000000000600052602260045260246000fd5b600060028204905060018216806200036f57607f821691505b6020821081141562000386576200038562000327565b5b50919050565b610efb806200039c6000396000f3fe6080604052600436106100a75760003560e01c80639119bde5116100645780639119bde5146101ac57806391f90157146101d7578063c623674f14610202578063ecfc7ecc1461022d578063f5b56c5614610237578063f77282ab14610262576100a7565b8063083c6323146100ac57806348cd4cb1146100d757806362ea82db146101025780637fb450991461013f5780638da5cb5b1461016a5780638fa8b79014610195575b600080fd5b3480156100b857600080fd5b506100c1610279565b6040516100ce9190610b41565b60405180910390f35b3480156100e357600080fd5b506100ec61027f565b6040516100f99190610b41565b60405180910390f35b34801561010e57600080fd5b5061012960048036038101906101249190610bbf565b610285565b6040516101369190610b41565b60405180910390f35b34801561014b57600080fd5b5061015461029d565b6040516101619190610c63565b60405180910390f35b34801561017657600080fd5b5061017f6102b0565b60405161018c9190610c9f565b60405180910390f35b3480156101a157600080fd5b506101aa6102d4565b005b3480156101b857600080fd5b506101c1610359565b6040516101ce9190610cd5565b60405180910390f35b3480156101e357600080fd5b506101ec61036c565b6040516101f99190610c9f565b60405180910390f35b34801561020e57600080fd5b50610217610392565b6040516102249190610d89565b60405180910390f35b610235610420565b005b34801561024357600080fd5b5061024c610734565b6040516102599190610b41565b60405180910390f35b34801561026e57600080fd5b5061027761073a565b005b60025481565b60015481565b60076020528060005260406000206000915090505481565b600460009054906101000a900460ff1681565b60008054906101000a900473ffffffffffffffffffffffffffffffffffffffff1681565b60008054906101000a900473ffffffffffffffffffffffffffffffffffffffff1673ffffffffffffffffffffffffffffffffffffffff163373ffffffffffffffffffffffffffffffffffffffff161461032c57600080fd5b6003600460006101000a81548160ff0219169083600381111561035257610351610bec565b5b0217905550565b600960009054906101000a900460ff1681565b600660009054906101000a900473ffffffffffffffffffffffffffffffffffffffff1681565b6003805461039f90610dda565b80601f01602080910402602001604051908101604052809291908181526020018280546103cb90610dda565b80156104185780601f106103ed57610100808354040283529160200191610418565b820191906000526020600020905b8154815290600101906020018083116103fb57829003601f168201915b505050505081565b60008054906101000a900473ffffffffffffffffffffffffffffffffffffffff1673ffffffffffffffffffffffffffffffffffffffff163373ffffffffffffffffffffffffffffffffffffffff16141561047957600080fd5b60015443101561048857600080fd5b60025443111561049757600080fd5b600160038111156104ab576104aa610bec565b5b600460009054906101000a900460ff1660038111156104cd576104cc610bec565b5b146104d757600080fd5b60643410156104e557600080fd5b600034600760003373ffffffffffffffffffffffffffffffffffffffff1673ffffffffffffffffffffffffffffffffffffffff168152602001908152602001600020546105329190610e3b565b9050600554811161054257600080fd5b80600760003373ffffffffffffffffffffffffffffffffffffffff1673ffffffffffffffffffffffffffffffffffffffff1681526020019081526020016000208190555060076000600660009054906101000a900473ffffffffffffffffffffffffffffffffffffffff1673ffffffffffffffffffffffffffffffffffffffff1673ffffffffffffffffffffffffffffffffffffffff16815260200190815260200160002054811161067157610666600854826105ff9190610e3b565b60076000600660009054906101000a900473ffffffffffffffffffffffffffffffffffffffff1673ffffffffffffffffffffffffffffffffffffffff1673ffffffffffffffffffffffffffffffffffffffff16815260200190815260200160002054610b0d565b600581905550610731565b6106e98160085460076000600660009054906101000a900473ffffffffffffffffffffffffffffffffffffffff1673ffffffffffffffffffffffffffffffffffffffff1673ffffffffffffffffffffffffffffffffffffffff168152602001908152602001600020546106e49190610e3b565b610b0d565b60058190555033600660006101000a81548173ffffffffffffffffffffffffffffffffffffffff021916908373ffffffffffffffffffffffffffffffffffffffff1602179055505b50565b60055481565b60038081111561074d5761074c610bec565b5b600460009054906101000a900460ff16600381111561076f5761076e610bec565b5b148061077c575060025443115b61078557600080fd5b60008054906101000a900473ffffffffffffffffffffffffffffffffffffffff1673ffffffffffffffffffffffffffffffffffffffff163373ffffffffffffffffffffffffffffffffffffffff16148061081e57506000600760003373ffffffffffffffffffffffffffffffffffffffff1673ffffffffffffffffffffffffffffffffffffffff16815260200190815260200160002054115b61082757600080fd5b60008060038081111561083d5761083c610bec565b5b600460009054906101000a900460ff16600381111561085f5761085e610bec565b5b14156108af57339150600760003373ffffffffffffffffffffffffffffffffffffffff1673ffffffffffffffffffffffffffffffffffffffff168152602001908152602001600020549050610a7d565b60008054906101000a900473ffffffffffffffffffffffffffffffffffffffff1673ffffffffffffffffffffffffffffffffffffffff163373ffffffffffffffffffffffffffffffffffffffff161480156109175750600960009054906101000a900460ff16155b156109445733915060055490506001600960006101000a81548160ff021916908315150217905550610a7c565b600660009054906101000a900473ffffffffffffffffffffffffffffffffffffffff1673ffffffffffffffffffffffffffffffffffffffff163373ffffffffffffffffffffffffffffffffffffffff161415610a3557600660009054906101000a900473ffffffffffffffffffffffffffffffffffffffff16915060055460076000600660009054906101000a900473ffffffffffffffffffffffffffffffffffffffff1673ffffffffffffffffffffffffffffffffffffffff1673ffffffffffffffffffffffffffffffffffffffff16815260200190815260200160002054610a2e9190610e91565b9050610a7b565b339150600760003373ffffffffffffffffffffffffffffffffffffffff1673ffffffffffffffffffffffffffffffffffffffff1681526020019081526020016000205490505b5b5b6000600760008473ffffffffffffffffffffffffffffffffffffffff1673ffffffffffffffffffffffffffffffffffffffff168152602001908152602001600020819055508173ffffffffffffffffffffffffffffffffffffffff166108fc829081150290604051600060405180830381858888f19350505050158015610b08573d6000803e3d6000fd5b505050565b6000818311610b1e57829050610b22565b8190505b92915050565b6000819050919050565b610b3b81610b28565b82525050565b6000602082019050610b566000830184610b32565b92915050565b600080fd5b600073ffffffffffffffffffffffffffffffffffffffff82169050919050565b6000610b8c82610b61565b9050919050565b610b9c81610b81565b8114610ba757600080fd5b50565b600081359050610bb981610b93565b92915050565b600060208284031215610bd557610bd4610b5c565b5b6000610be384828501610baa565b91505092915050565b7f4e487b7100000000000000000000000000000000000000000000000000000000600052602160045260246000fd5b60048110610c2c57610c2b610bec565b5b50565b6000819050610c3d82610c1b565b919050565b6000610c4d82610c2f565b9050919050565b610c5d81610c42565b82525050565b6000602082019050610c786000830184610c54565b92915050565b6000610c8982610b61565b9050919050565b610c9981610c7e565b82525050565b6000602082019050610cb46000830184610c90565b92915050565b60008115159050919050565b610ccf81610cba565b82525050565b6000602082019050610cea6000830184610cc6565b92915050565b600081519050919050565b600082825260208201905092915050565b60005b83811015610d2a578082015181840152602081019050610d0f565b83811115610d39576000848401525b50505050565b6000601f19601f8301169050919050565b6000610d5b82610cf0565b610d658185610cfb565b9350610d75818560208601610d0c565b610d7e81610d3f565b840191505092915050565b60006020820190508181036000830152610da38184610d50565b905092915050565b7f4e487b7100000000000000000000000000000000000000000000000000000000600052602260045260246000fd5b60006002820490506001821680610df257607f821691505b60208210811415610e0657610e05610dab565b5b50919050565b7f4e487b7100000000000000000000000000000000000000000000000000000000600052601160045260246000fd5b6000610e4682610b28565b9150610e5183610b28565b9250827fffffffffffffffffffffffffffffffffffffffffffffffffffffffffffffffff03821115610e8657610e85610e0c565b5b828201905092915050565b6000610e9c82610b28565b9150610ea783610b28565b925082821015610eba57610eb9610e0c565b5b82820390509291505056fea26469706673582212205813bf38374f4cf46e291b47687b95ba68e1f5f68c9515deb0e0dc9c9916fd3b64736f6c634300080b0033",
  "immutableReferences": {},
  "source": "//SPDX-License-Identifier: MIT\n\npragma solidity >=0.5.0 <0.9.0;\n\ncontract AuctionFactory {\n  Auction[] public deployedAuctions;\n\n  function createAuction() public {\n    Auction newAuction = new Auction(msg.sender);\n    deployedAuctions.push(newAuction);\n  }\n  \n  function getDeployedAuctions() public view returns (Auction[] memory) {\n    return deployedAuctions;\n  }\n}\n\ncontract Auction {\n  address payable public owner;\n  uint public startBlock;\n  uint public endBlock;\n  string public ipfsHash;\n  enum State {Started, Running, Ended, Cancelled}\n  State public auctionState;\n\n  uint public highestBindingBid;\n  address payable public highestBidder;\n\n  mapping(address=>uint) public bids;\n  uint bidIncrement;\n\n  //the owner can finalize the auction and get the highestBindingBid only once\n  bool public ownerGotFunds = false;\n\n  constructor(address creator) {\n    owner = payable(creator);\n    auctionState = State.Running;\n    startBlock = block.number;\n    // There will be 40320 blocks generated in a week.\n    // The auction will be running for a week.\n    endBlock = startBlock + 40320;\n    ipfsHash = \"\";\n    bidIncrement = 100;\n  }\n\n  modifier onlyOwner() {\n    require(msg.sender == owner);\n    _;\n  }\n\n  modifier notOwner() {\n    require(msg.sender != owner);\n    _;\n  }\n\n  modifier afterStart() {\n    require(block.number >= startBlock);\n    _;\n  }\n\n  modifier beforeEnd() {\n    require(block.number <= endBlock);\n    _;\n  }\n\n  function min(uint a, uint b) pure internal returns(uint) {\n    if (a <= b) {\n      return a;\n    } else {\n      return b;\n    }\n  }\n\n  function placeBid() public payable notOwner afterStart beforeEnd {\n    require(auctionState == State.Running);\n    require(msg.value >= 100);\n\n    uint currentBid = bids[msg.sender] + msg.value;\n    require(currentBid > highestBindingBid);\n    bids[msg.sender] = currentBid;\n\n    if (currentBid <= bids[highestBidder]) {\n      highestBindingBid = min(currentBid + bidIncrement, bids[highestBidder]);\n    } else {\n      highestBindingBid = min(currentBid, bids[highestBidder] + bidIncrement);\n      highestBidder = payable(msg.sender);\n    }\n  }\n\n  function cancelAuction() public onlyOwner {\n    auctionState = State.Cancelled;\n  }\n\n  function finalizeAuction() public {\n    // the auction has been canceled or ended\n    require(auctionState == State.Cancelled || block.number > endBlock);\n\n    // only the owner or a bidder can finalize the auction\n    require(msg.sender == owner || bids[msg.sender] > 0);\n\n    address payable recipient;\n    uint value;\n\n    if (auctionState == State.Cancelled) {\n      recipient = payable(msg.sender);\n      value = bids[msg.sender];\n    } else {\n      // auction ended\n      // the owner finalizes de auction\n      if (msg.sender == owner && !ownerGotFunds) {\n        recipient = payable(msg.sender);\n        value = highestBindingBid;\n\n        //the owner can finalize the auction and get the highestBindingBid only once\n        ownerGotFunds = true; \n      } else {\n        // another user different from the owner finalizes the auction\n        if (msg.sender == highestBidder) {\n          // the highestBidder finalizes the auction\n          recipient = highestBidder;\n          value = bids[highestBidder] - highestBindingBid;\n        } else {\n          // neither the owner or the highestBidder finalizes the auction\n          recipient = payable(msg.sender);\n          value = bids[msg.sender];\n        }\n      }\n    }\n\n    // resetting the bid of the recipient to 0\n    bids[recipient] = 0;\n\n    recipient.transfer(value);\n  }\n}",
  "sourcePath": "/home/lorenzo/Learning/Blockchain/Practice/Auction/ethereum/contracts/Auction.sol",
  "compiler": {
    "name": "solc",
    "version": "0.8.11+commit.d7f03943.Emscripten.clang"
  },
  "schemaVersion": "3.4.5",
  "updatedAt": "2022-02-25T04:12:09.414Z",
  "devdoc": {
    "kind": "dev",
    "methods": {},
    "version": 1
  },
  "userdoc": {
    "kind": "user",
    "methods": {},
    "version": 1
  }
}